{
  "contractName": "NFTMarketplace",
  "abi": [
    {
      "inputs": [
        {
          "internalType": "address",
          "name": "_nftCollection",
          "type": "address"
        }
      ],
      "stateMutability": "nonpayable",
      "type": "constructor"
    },
    {
      "anonymous": false,
      "inputs": [
        {
          "indexed": false,
          "internalType": "address",
          "name": "user",
          "type": "address"
        },
        {
          "indexed": false,
          "internalType": "uint256",
          "name": "amount",
          "type": "uint256"
        }
      ],
      "name": "ClaimFunds",
      "type": "event"
    },
    {
      "anonymous": false,
      "inputs": [
        {
          "indexed": false,
          "internalType": "uint256",
          "name": "offerId",
          "type": "uint256"
        },
        {
          "indexed": false,
          "internalType": "uint256",
          "name": "id",
          "type": "uint256"
        },
        {
          "indexed": false,
          "internalType": "address",
          "name": "user",
          "type": "address"
        },
        {
          "indexed": false,
          "internalType": "uint256",
          "name": "price",
          "type": "uint256"
        },
        {
          "indexed": false,
          "internalType": "bool",
          "name": "fulfilled",
          "type": "bool"
        },
        {
          "indexed": false,
          "internalType": "bool",
          "name": "cancelled",
          "type": "bool"
        }
      ],
      "name": "Offer",
      "type": "event"
    },
    {
      "anonymous": false,
      "inputs": [
        {
          "indexed": false,
          "internalType": "uint256",
          "name": "offerId",
          "type": "uint256"
        },
        {
          "indexed": false,
          "internalType": "uint256",
          "name": "id",
          "type": "uint256"
        },
        {
          "indexed": false,
          "internalType": "address",
          "name": "owner",
          "type": "address"
        }
      ],
      "name": "OfferCancelled",
      "type": "event"
    },
    {
      "anonymous": false,
      "inputs": [
        {
          "indexed": false,
          "internalType": "uint256",
          "name": "offerId",
          "type": "uint256"
        },
        {
          "indexed": false,
          "internalType": "uint256",
          "name": "id",
          "type": "uint256"
        },
        {
          "indexed": false,
          "internalType": "address",
          "name": "newOwner",
          "type": "address"
        }
      ],
      "name": "OfferFilled",
      "type": "event"
    },
    {
      "stateMutability": "nonpayable",
      "type": "fallback"
    },
    {
      "inputs": [],
      "name": "offerCount",
      "outputs": [
        {
          "internalType": "uint256",
          "name": "",
          "type": "uint256"
        }
      ],
      "stateMutability": "view",
      "type": "function",
      "constant": true
    },
    {
      "inputs": [
        {
          "internalType": "uint256",
          "name": "",
          "type": "uint256"
        }
      ],
      "name": "offers",
      "outputs": [
        {
          "internalType": "uint256",
          "name": "offerId",
          "type": "uint256"
        },
        {
          "internalType": "uint256",
          "name": "id",
          "type": "uint256"
        },
        {
          "internalType": "address",
          "name": "user",
          "type": "address"
        },
        {
          "internalType": "uint256",
          "name": "price",
          "type": "uint256"
        },
        {
          "internalType": "bool",
          "name": "fulfilled",
          "type": "bool"
        },
        {
          "internalType": "bool",
          "name": "cancelled",
          "type": "bool"
        }
      ],
      "stateMutability": "view",
      "type": "function",
      "constant": true
    },
    {
      "inputs": [
        {
          "internalType": "uint256",
          "name": "_id",
          "type": "uint256"
        },
        {
          "internalType": "uint256",
          "name": "price",
          "type": "uint256"
        }
      ],
      "name": "makeOffer",
      "outputs": [],
      "stateMutability": "nonpayable",
      "type": "function"
    },
    {
      "inputs": [
        {
          "internalType": "uint256",
          "name": "_offerId",
          "type": "uint256"
        }
      ],
      "name": "fillOffer",
      "outputs": [],
      "stateMutability": "payable",
      "type": "function",
      "payable": true
    },
    {
      "inputs": [
        {
          "internalType": "uint256",
          "name": "_offerId",
          "type": "uint256"
        }
      ],
      "name": "cancelOffer",
      "outputs": [],
      "stateMutability": "nonpayable",
      "type": "function"
    },
    {
      "inputs": [],
      "name": "claimFunds",
      "outputs": [],
      "stateMutability": "nonpayable",
      "type": "function"
    }
  ],
  "bytecode": "0x60806040523480156200001157600080fd5b5060405162001439380380620014398339818101604052810190620000379190620000e9565b80600360006101000a81548173ffffffffffffffffffffffffffffffffffffffff021916908373ffffffffffffffffffffffffffffffffffffffff160217905550506200011b565b600080fd5b600073ffffffffffffffffffffffffffffffffffffffff82169050919050565b6000620000b18262000084565b9050919050565b620000c381620000a4565b8114620000cf57600080fd5b50565b600081519050620000e381620000b8565b92915050565b6000602082840312156200010257620001016200007f565b5b60006200011284828501620000d2565b91505092915050565b61130e806200012b6000396000f3fe6080604052600436106100595760003560e01c806305b7cdd31461006c5780631115c24d1461009557806385dba861146100c05780638a72ea6a146100dc578063ac3077731461011e578063ef706adf146101355761005a565b5b34801561006657600080fd5b50600080fd5b34801561007857600080fd5b50610093600480360381019061008e9190610ba4565b61015e565b005b3480156100a157600080fd5b506100aa610355565b6040516100b79190610bf3565b60405180910390f35b6100da60048036038101906100d59190610c0e565b61035b565b005b3480156100e857600080fd5b5061010360048036038101906100fe9190610c0e565b6106a4565b60405161011596959493929190610c97565b60405180910390f35b34801561012a57600080fd5b5061013361071a565b005b34801561014157600080fd5b5061015c60048036038101906101579190610c0e565b6108e1565b005b600360009054906101000a900473ffffffffffffffffffffffffffffffffffffffff1673ffffffffffffffffffffffffffffffffffffffff166323b872dd3330856040518463ffffffff1660e01b81526004016101bd93929190610cf8565b600060405180830381600087803b1580156101d757600080fd5b505af11580156101eb573d6000803e3d6000fd5b5050505060008081548092919061020190610d5e565b91905055506040518060c0016040528060005481526020018381526020013373ffffffffffffffffffffffffffffffffffffffff168152602001828152602001600015158152602001600015158152506001600080548152602001908152602001600020600082015181600001556020820151816001015560408201518160020160006101000a81548173ffffffffffffffffffffffffffffffffffffffff021916908373ffffffffffffffffffffffffffffffffffffffff1602179055506060820151816003015560808201518160040160006101000a81548160ff02191690831515021790555060a08201518160040160016101000a81548160ff0219169083151502179055509050507f93e711896d4ef527d199d7e101922e20f918cbb248a0fb0977c52fda24aa1f1d60005483338460008060405161034996959493929190610c97565b60405180910390a15050565b60005481565b6000600160008381526020019081526020016000209050818160000154146103b8576040517f08c379a00000000000000000000000000000000000000000000000000000000081526004016103af90610e04565b60405180910390fd5b3373ffffffffffffffffffffffffffffffffffffffff168160020160009054906101000a900473ffffffffffffffffffffffffffffffffffffffff1673ffffffffffffffffffffffffffffffffffffffff16141561044b576040517f08c379a000000000000000000000000000000000000000000000000000000000815260040161044290610e96565b60405180910390fd5b8060040160009054906101000a900460ff161561049d576040517f08c379a000000000000000000000000000000000000000000000000000000000815260040161049490610f28565b60405180910390fd5b8060040160019054906101000a900460ff16156104ef576040517f08c379a00000000000000000000000000000000000000000000000000000000081526004016104e690610fba565b60405180910390fd5b80600301543414610535576040517f08c379a000000000000000000000000000000000000000000000000000000000815260040161052c9061104c565b60405180910390fd5b600360009054906101000a900473ffffffffffffffffffffffffffffffffffffffff1673ffffffffffffffffffffffffffffffffffffffff166323b872dd303384600101546040518463ffffffff1660e01b815260040161059893929190610cf8565b600060405180830381600087803b1580156105b257600080fd5b505af11580156105c6573d6000803e3d6000fd5b5050505060018160040160006101000a81548160ff02191690831515021790555034600260008360020160009054906101000a900473ffffffffffffffffffffffffffffffffffffffff1673ffffffffffffffffffffffffffffffffffffffff1673ffffffffffffffffffffffffffffffffffffffff168152602001908152602001600020600082825461065a919061106c565b925050819055507fd9157c065213ada613694e84b1e27fe2efd62d85c6b82bd6c842a4999491e72a82826001015433604051610698939291906110c2565b60405180910390a15050565b60016020528060005260406000206000915090508060000154908060010154908060020160009054906101000a900473ffffffffffffffffffffffffffffffffffffffff16908060030154908060040160009054906101000a900460ff16908060040160019054906101000a900460ff16905086565b6000600260003373ffffffffffffffffffffffffffffffffffffffff1673ffffffffffffffffffffffffffffffffffffffff168152602001908152602001600020541161079c576040517f08c379a00000000000000000000000000000000000000000000000000000000081526004016107939061116b565b60405180910390fd5b3373ffffffffffffffffffffffffffffffffffffffff166108fc600260003373ffffffffffffffffffffffffffffffffffffffff1673ffffffffffffffffffffffffffffffffffffffff168152602001908152602001600020549081150290604051600060405180830381858888f19350505050158015610821573d6000803e3d6000fd5b507f4f0554190111f93f8c2ccef2cc41473f187d7f29ff5a5c308ca41f9dfe4e989a33600260003373ffffffffffffffffffffffffffffffffffffffff1673ffffffffffffffffffffffffffffffffffffffff1681526020019081526020016000205460405161089292919061118b565b60405180910390a16000600260003373ffffffffffffffffffffffffffffffffffffffff1673ffffffffffffffffffffffffffffffffffffffff16815260200190815260200160002081905550565b60006001600083815260200190815260200160002090508181600001541461093e576040517f08c379a000000000000000000000000000000000000000000000000000000000815260040161093590610e04565b60405180910390fd5b3373ffffffffffffffffffffffffffffffffffffffff168160020160009054906101000a900473ffffffffffffffffffffffffffffffffffffffff1673ffffffffffffffffffffffffffffffffffffffff16146109d0576040517f08c379a00000000000000000000000000000000000000000000000000000000081526004016109c790611226565b60405180910390fd5b8060040160009054906101000a900460ff1615610a22576040517f08c379a0000000000000000000000000000000000000000000000000000000008152600401610a1990610fba565b60405180910390fd5b8060040160019054906101000a900460ff1615610a74576040517f08c379a0000000000000000000000000000000000000000000000000000000008152600401610a6b906112b8565b60405180910390fd5b600360009054906101000a900473ffffffffffffffffffffffffffffffffffffffff1673ffffffffffffffffffffffffffffffffffffffff166323b872dd303384600101546040518463ffffffff1660e01b8152600401610ad793929190610cf8565b600060405180830381600087803b158015610af157600080fd5b505af1158015610b05573d6000803e3d6000fd5b5050505060018160040160016101000a81548160ff0219169083151502179055507f5b166b4d0498ff8c4719999cb6154c5d197e6f020f9fbfcf9d347f84576cfab782826001015433604051610b5d939291906110c2565b60405180910390a15050565b600080fd5b6000819050919050565b610b8181610b6e565b8114610b8c57600080fd5b50565b600081359050610b9e81610b78565b92915050565b60008060408385031215610bbb57610bba610b69565b5b6000610bc985828601610b8f565b9250506020610bda85828601610b8f565b9150509250929050565b610bed81610b6e565b82525050565b6000602082019050610c086000830184610be4565b92915050565b600060208284031215610c2457610c23610b69565b5b6000610c3284828501610b8f565b91505092915050565b600073ffffffffffffffffffffffffffffffffffffffff82169050919050565b6000610c6682610c3b565b9050919050565b610c7681610c5b565b82525050565b60008115159050919050565b610c9181610c7c565b82525050565b600060c082019050610cac6000830189610be4565b610cb96020830188610be4565b610cc66040830187610c6d565b610cd36060830186610be4565b610ce06080830185610c88565b610ced60a0830184610c88565b979650505050505050565b6000606082019050610d0d6000830186610c6d565b610d1a6020830185610c6d565b610d276040830184610be4565b949350505050565b7f4e487b7100000000000000000000000000000000000000000000000000000000600052601160045260246000fd5b6000610d6982610b6e565b91507fffffffffffffffffffffffffffffffffffffffffffffffffffffffffffffffff821415610d9c57610d9b610d2f565b5b600182019050919050565b600082825260208201905092915050565b7f546865206f66666572206d757374206578697374000000000000000000000000600082015250565b6000610dee601483610da7565b9150610df982610db8565b602082019050919050565b60006020820190508181036000830152610e1d81610de1565b9050919050565b7f546865206f776e6572206f6620746865206f666665722063616e6e6f7420666960008201527f6c6c206974000000000000000000000000000000000000000000000000000000602082015250565b6000610e80602583610da7565b9150610e8b82610e24565b604082019050919050565b60006020820190508181036000830152610eaf81610e73565b9050919050565b7f416e206f666665722063616e6e6f742062652066756c66696c6c65642074776960008201527f6365000000000000000000000000000000000000000000000000000000000000602082015250565b6000610f12602283610da7565b9150610f1d82610eb6565b604082019050919050565b60006020820190508181036000830152610f4181610f05565b9050919050565b7f412063616e63656c6c6564206f666665722063616e6e6f742062652066756c6660008201527f696c6c6564000000000000000000000000000000000000000000000000000000602082015250565b6000610fa4602583610da7565b9150610faf82610f48565b604082019050919050565b60006020820190508181036000830152610fd381610f97565b9050919050565b7f5468652045544820616d6f756e742073686f756c64206d61746368207769746860008201527f20746865204e4654205072696365000000000000000000000000000000000000602082015250565b6000611036602e83610da7565b915061104182610fda565b604082019050919050565b6000602082019050818103600083015261106581611029565b9050919050565b600061107782610b6e565b915061108283610b6e565b9250827fffffffffffffffffffffffffffffffffffffffffffffffffffffffffffffffff038211156110b7576110b6610d2f565b5b828201905092915050565b60006060820190506110d76000830186610be4565b6110e46020830185610be4565b6110f16040830184610c6d565b949350505050565b7f54686973207573657220686173206e6f2066756e647320746f20626520636c6160008201527f696d656400000000000000000000000000000000000000000000000000000000602082015250565b6000611155602483610da7565b9150611160826110f9565b604082019050919050565b6000602082019050818103600083015261118481611148565b9050919050565b60006040820190506111a06000830185610c6d565b6111ad6020830184610be4565b9392505050565b7f546865206f666665722063616e206f6e6c792062652063616e63656c6564206260008201527f7920746865206f776e6572000000000000000000000000000000000000000000602082015250565b6000611210602b83610da7565b915061121b826111b4565b604082019050919050565b6000602082019050818103600083015261123f81611203565b9050919050565b7f416e206f666665722063616e6e6f742062652063616e63656c6c65642074776960008201527f6365000000000000000000000000000000000000000000000000000000000000602082015250565b60006112a2602283610da7565b91506112ad82611246565b604082019050919050565b600060208201905081810360008301526112d181611295565b905091905056fea2646970667358221220a8311592ba6164d7b77492221e3698f7da4ebb21991f0d32699830c89e1c4f8164736f6c634300080c0033",
  "immutableReferences": {},
  "source": "// SPDX-License-Identifier: MIT\npragma solidity ^0.8.0;\n\nimport \"./NFTCollection.sol\";\n\ncontract NFTMarketplace {\n    uint public offerCount;\n    mapping (uint =>_Offer) public offers;\n    mapping (address=>uint) userFunds;\n    NFTCollection nftCollection;\n\n    struct _Offer{\n        uint offerId;\n        uint id;\n        address user;\n        uint price;\n        bool fulfilled;\n        bool cancelled;\n    }\n\n    event Offer( \n        uint offerId,\n        uint id,\n        address user,\n        uint price,\n        bool fulfilled,\n        bool cancelled\n    );\n\n    event OfferFilled(\n        uint offerId,\n        uint id,\n        address newOwner\n    );\n\n    event OfferCancelled(\n        uint offerId,\n        uint id,\n        address owner\n    );\n\n    event ClaimFunds(address user, uint amount);\n\n    constructor(address _nftCollection){\n        nftCollection = NFTCollection(_nftCollection);\n    }\n\n    function makeOffer(uint _id,uint price) public{\n        nftCollection.transferFrom(msg.sender,address(this), _id);\n        offerCount++;\n        offers[offerCount] = _Offer(offerCount,_id,msg.sender,price,false,false);\n        emit Offer(offerCount,_id,msg.sender,price,false,false);\n    }\n\n    function fillOffer(uint _offerId) public payable{\n        _Offer storage _offer = offers[_offerId];\n        require(_offer.offerId == _offerId,\"The offer must exist\");\n        require(_offer.user != msg.sender,\"The owner of the offer cannot fill it\");\n        require(!_offer.fulfilled ,\"An offer cannot be fulfilled twice\");\n        require(!_offer.cancelled,\"A cancelled offer cannot be fulfilled\");\n        require(msg.value == _offer.price ,\"The ETH amount should match with the NFT Price\");\n        nftCollection.transferFrom(address(this),msg.sender, _offer.id);\n        _offer.fulfilled = true;\n        userFunds[_offer.user] += msg.value;\n        emit OfferFilled(_offerId, _offer.id, msg.sender);\n    }\n\n    function cancelOffer(uint _offerId) public {\n        _Offer storage _offer = offers[_offerId];\n        require(_offer.offerId == _offerId, \"The offer must exist\");\n        require(_offer.user == msg.sender ,\"The offer can only be canceled by the owner\");\n        require(!_offer.fulfilled ,\"A cancelled offer cannot be fulfilled\");\n        require(!_offer.cancelled,\"An offer cannot be cancelled twice\");\n        nftCollection.transferFrom(address(this),msg.sender,_offer.id);\n        _offer.cancelled = true;\n        emit OfferCancelled(_offerId, _offer.id, msg.sender);\n    }\n\n    function claimFunds() public {\n        require(userFunds[msg.sender] > 0 ,\"This user has no funds to be claimed\");\n        payable(msg.sender).transfer(userFunds[msg.sender]);\n        emit ClaimFunds(msg.sender, userFunds[msg.sender]);\n        userFunds[msg.sender] = 0;\n    }\n\n    fallback() external{\n        revert();\n    }\n\n}",
  "sourcePath": "/Users/ngocban/Desktop/nft-marketplace/src/contracts/NFTMarketplace.sol",
  "compiler": {
    "name": "solc",
    "version": "0.8.12+commit.f00d7308.Emscripten.clang"
  },
  "schemaVersion": "3.4.4",
  "updatedAt": "2022-02-24T12:34:16.845Z",
  "networkType": "ethereum",
  "devdoc": {
    "kind": "dev",
    "methods": {},
    "version": 1
  },
  "userdoc": {
    "kind": "user",
    "methods": {},
    "version": 1
  }
}