{
  "contractName": "NFTMarketplace",
  "abi": [
    {
      "inputs": [
        {
          "internalType": "address",
          "name": "_nftCollection",
          "type": "address"
        }
      ],
      "stateMutability": "nonpayable",
      "type": "constructor"
    },
    {
      "anonymous": false,
      "inputs": [
        {
          "indexed": false,
          "internalType": "address",
          "name": "user",
          "type": "address"
        },
        {
          "indexed": false,
          "internalType": "uint256",
          "name": "amount",
          "type": "uint256"
        }
      ],
      "name": "ClaimFunds",
      "type": "event"
    },
    {
      "anonymous": false,
      "inputs": [
        {
          "indexed": false,
          "internalType": "uint256",
          "name": "offerId",
          "type": "uint256"
        },
        {
          "indexed": false,
          "internalType": "uint256",
          "name": "id",
          "type": "uint256"
        },
        {
          "indexed": false,
          "internalType": "address",
          "name": "user",
          "type": "address"
        },
        {
          "indexed": false,
          "internalType": "uint256",
          "name": "price",
          "type": "uint256"
        },
        {
          "indexed": false,
          "internalType": "bool",
          "name": "fulfilled",
          "type": "bool"
        },
        {
          "indexed": false,
          "internalType": "bool",
          "name": "cancelled",
          "type": "bool"
        }
      ],
      "name": "Offer",
      "type": "event"
    },
    {
      "anonymous": false,
      "inputs": [
        {
          "indexed": false,
          "internalType": "uint256",
          "name": "offerId",
          "type": "uint256"
        },
        {
          "indexed": false,
          "internalType": "uint256",
          "name": "id",
          "type": "uint256"
        },
        {
          "indexed": false,
          "internalType": "address",
          "name": "owner",
          "type": "address"
        }
      ],
      "name": "OfferCancelled",
      "type": "event"
    },
    {
      "anonymous": false,
      "inputs": [
        {
          "indexed": false,
          "internalType": "uint256",
          "name": "offerId",
          "type": "uint256"
        },
        {
          "indexed": false,
          "internalType": "uint256",
          "name": "id",
          "type": "uint256"
        },
        {
          "indexed": false,
          "internalType": "address",
          "name": "newOwner",
          "type": "address"
        }
      ],
      "name": "OfferFilled",
      "type": "event"
    },
    {
      "stateMutability": "nonpayable",
      "type": "fallback"
    },
    {
      "inputs": [],
      "name": "offerCount",
      "outputs": [
        {
          "internalType": "uint256",
          "name": "",
          "type": "uint256"
        }
      ],
      "stateMutability": "view",
      "type": "function",
      "constant": true
    },
    {
      "inputs": [
        {
          "internalType": "uint256",
          "name": "",
          "type": "uint256"
        }
      ],
      "name": "offers",
      "outputs": [
        {
          "internalType": "uint256",
          "name": "offerId",
          "type": "uint256"
        },
        {
          "internalType": "uint256",
          "name": "id",
          "type": "uint256"
        },
        {
          "internalType": "address",
          "name": "user",
          "type": "address"
        },
        {
          "internalType": "uint256",
          "name": "price",
          "type": "uint256"
        },
        {
          "internalType": "bool",
          "name": "fulfilled",
          "type": "bool"
        },
        {
          "internalType": "bool",
          "name": "cancelled",
          "type": "bool"
        }
      ],
      "stateMutability": "view",
      "type": "function",
      "constant": true
    },
    {
      "inputs": [
        {
          "internalType": "address",
          "name": "",
          "type": "address"
        }
      ],
      "name": "userFunds",
      "outputs": [
        {
          "internalType": "uint256",
          "name": "",
          "type": "uint256"
        }
      ],
      "stateMutability": "view",
      "type": "function",
      "constant": true
    },
    {
      "inputs": [
        {
          "internalType": "uint256",
          "name": "_id",
          "type": "uint256"
        },
        {
          "internalType": "uint256",
          "name": "price",
          "type": "uint256"
        }
      ],
      "name": "makeOffer",
      "outputs": [],
      "stateMutability": "nonpayable",
      "type": "function"
    },
    {
      "inputs": [
        {
          "internalType": "uint256",
          "name": "_offerId",
          "type": "uint256"
        }
      ],
      "name": "fillOffer",
      "outputs": [],
      "stateMutability": "payable",
      "type": "function",
      "payable": true
    },
    {
      "inputs": [
        {
          "internalType": "uint256",
          "name": "_offerId",
          "type": "uint256"
        }
      ],
      "name": "cancelOffer",
      "outputs": [],
      "stateMutability": "nonpayable",
      "type": "function"
    },
    {
      "inputs": [],
      "name": "claimFunds",
      "outputs": [],
      "stateMutability": "nonpayable",
      "type": "function"
    }
  ],
  "bytecode": "0x60806040523480156200001157600080fd5b5060405162001502380380620015028339818101604052810190620000379190620000e9565b80600360006101000a81548173ffffffffffffffffffffffffffffffffffffffff021916908373ffffffffffffffffffffffffffffffffffffffff160217905550506200011b565b600080fd5b600073ffffffffffffffffffffffffffffffffffffffff82169050919050565b6000620000b18262000084565b9050919050565b620000c381620000a4565b8114620000cf57600080fd5b50565b600081519050620000e381620000b8565b92915050565b6000602082840312156200010257620001016200007f565b5b60006200011284828501620000d2565b91505092915050565b6113d7806200012b6000396000f3fe6080604052600436106100745760003560e01c806385dba8611161004e57806385dba861146101185780638a72ea6a14610134578063ac30777314610176578063ef706adf1461018d57610075565b806305b7cdd3146100875780631115c24d146100b05780638387c6e1146100db57610075565b5b34801561008157600080fd5b50600080fd5b34801561009357600080fd5b506100ae60048036038101906100a99190610c14565b6101b6565b005b3480156100bc57600080fd5b506100c56103ad565b6040516100d29190610c63565b60405180910390f35b3480156100e757600080fd5b5061010260048036038101906100fd9190610cdc565b6103b3565b60405161010f9190610c63565b60405180910390f35b610132600480360381019061012d9190610d09565b6103cb565b005b34801561014057600080fd5b5061015b60048036038101906101569190610d09565b610714565b60405161016d96959493929190610d60565b60405180910390f35b34801561018257600080fd5b5061018b61078a565b005b34801561019957600080fd5b506101b460048036038101906101af9190610d09565b610951565b005b600360009054906101000a900473ffffffffffffffffffffffffffffffffffffffff1673ffffffffffffffffffffffffffffffffffffffff166323b872dd3330856040518463ffffffff1660e01b815260040161021593929190610dc1565b600060405180830381600087803b15801561022f57600080fd5b505af1158015610243573d6000803e3d6000fd5b5050505060008081548092919061025990610e27565b91905055506040518060c0016040528060005481526020018381526020013373ffffffffffffffffffffffffffffffffffffffff168152602001828152602001600015158152602001600015158152506001600080548152602001908152602001600020600082015181600001556020820151816001015560408201518160020160006101000a81548173ffffffffffffffffffffffffffffffffffffffff021916908373ffffffffffffffffffffffffffffffffffffffff1602179055506060820151816003015560808201518160040160006101000a81548160ff02191690831515021790555060a08201518160040160016101000a81548160ff0219169083151502179055509050507f93e711896d4ef527d199d7e101922e20f918cbb248a0fb0977c52fda24aa1f1d6000548333846000806040516103a196959493929190610d60565b60405180910390a15050565b60005481565b60026020528060005260406000206000915090505481565b600060016000838152602001908152602001600020905081816000015414610428576040517f08c379a000000000000000000000000000000000000000000000000000000000815260040161041f90610ecd565b60405180910390fd5b3373ffffffffffffffffffffffffffffffffffffffff168160020160009054906101000a900473ffffffffffffffffffffffffffffffffffffffff1673ffffffffffffffffffffffffffffffffffffffff1614156104bb576040517f08c379a00000000000000000000000000000000000000000000000000000000081526004016104b290610f5f565b60405180910390fd5b8060040160009054906101000a900460ff161561050d576040517f08c379a000000000000000000000000000000000000000000000000000000000815260040161050490610ff1565b60405180910390fd5b8060040160019054906101000a900460ff161561055f576040517f08c379a000000000000000000000000000000000000000000000000000000000815260040161055690611083565b60405180910390fd5b806003015434146105a5576040517f08c379a000000000000000000000000000000000000000000000000000000000815260040161059c90611115565b60405180910390fd5b600360009054906101000a900473ffffffffffffffffffffffffffffffffffffffff1673ffffffffffffffffffffffffffffffffffffffff166323b872dd303384600101546040518463ffffffff1660e01b815260040161060893929190610dc1565b600060405180830381600087803b15801561062257600080fd5b505af1158015610636573d6000803e3d6000fd5b5050505060018160040160006101000a81548160ff02191690831515021790555034600260008360020160009054906101000a900473ffffffffffffffffffffffffffffffffffffffff1673ffffffffffffffffffffffffffffffffffffffff1673ffffffffffffffffffffffffffffffffffffffff16815260200190815260200160002060008282546106ca9190611135565b925050819055507fd9157c065213ada613694e84b1e27fe2efd62d85c6b82bd6c842a4999491e72a828260010154336040516107089392919061118b565b60405180910390a15050565b60016020528060005260406000206000915090508060000154908060010154908060020160009054906101000a900473ffffffffffffffffffffffffffffffffffffffff16908060030154908060040160009054906101000a900460ff16908060040160019054906101000a900460ff16905086565b6000600260003373ffffffffffffffffffffffffffffffffffffffff1673ffffffffffffffffffffffffffffffffffffffff168152602001908152602001600020541161080c576040517f08c379a000000000000000000000000000000000000000000000000000000000815260040161080390611234565b60405180910390fd5b3373ffffffffffffffffffffffffffffffffffffffff166108fc600260003373ffffffffffffffffffffffffffffffffffffffff1673ffffffffffffffffffffffffffffffffffffffff168152602001908152602001600020549081150290604051600060405180830381858888f19350505050158015610891573d6000803e3d6000fd5b507f4f0554190111f93f8c2ccef2cc41473f187d7f29ff5a5c308ca41f9dfe4e989a33600260003373ffffffffffffffffffffffffffffffffffffffff1673ffffffffffffffffffffffffffffffffffffffff16815260200190815260200160002054604051610902929190611254565b60405180910390a16000600260003373ffffffffffffffffffffffffffffffffffffffff1673ffffffffffffffffffffffffffffffffffffffff16815260200190815260200160002081905550565b6000600160008381526020019081526020016000209050818160000154146109ae576040517f08c379a00000000000000000000000000000000000000000000000000000000081526004016109a590610ecd565b60405180910390fd5b3373ffffffffffffffffffffffffffffffffffffffff168160020160009054906101000a900473ffffffffffffffffffffffffffffffffffffffff1673ffffffffffffffffffffffffffffffffffffffff1614610a40576040517f08c379a0000000000000000000000000000000000000000000000000000000008152600401610a37906112ef565b60405180910390fd5b8060040160009054906101000a900460ff1615610a92576040517f08c379a0000000000000000000000000000000000000000000000000000000008152600401610a8990611083565b60405180910390fd5b8060040160019054906101000a900460ff1615610ae4576040517f08c379a0000000000000000000000000000000000000000000000000000000008152600401610adb90611381565b60405180910390fd5b600360009054906101000a900473ffffffffffffffffffffffffffffffffffffffff1673ffffffffffffffffffffffffffffffffffffffff166323b872dd303384600101546040518463ffffffff1660e01b8152600401610b4793929190610dc1565b600060405180830381600087803b158015610b6157600080fd5b505af1158015610b75573d6000803e3d6000fd5b5050505060018160040160016101000a81548160ff0219169083151502179055507f5b166b4d0498ff8c4719999cb6154c5d197e6f020f9fbfcf9d347f84576cfab782826001015433604051610bcd9392919061118b565b60405180910390a15050565b600080fd5b6000819050919050565b610bf181610bde565b8114610bfc57600080fd5b50565b600081359050610c0e81610be8565b92915050565b60008060408385031215610c2b57610c2a610bd9565b5b6000610c3985828601610bff565b9250506020610c4a85828601610bff565b9150509250929050565b610c5d81610bde565b82525050565b6000602082019050610c786000830184610c54565b92915050565b600073ffffffffffffffffffffffffffffffffffffffff82169050919050565b6000610ca982610c7e565b9050919050565b610cb981610c9e565b8114610cc457600080fd5b50565b600081359050610cd681610cb0565b92915050565b600060208284031215610cf257610cf1610bd9565b5b6000610d0084828501610cc7565b91505092915050565b600060208284031215610d1f57610d1e610bd9565b5b6000610d2d84828501610bff565b91505092915050565b610d3f81610c9e565b82525050565b60008115159050919050565b610d5a81610d45565b82525050565b600060c082019050610d756000830189610c54565b610d826020830188610c54565b610d8f6040830187610d36565b610d9c6060830186610c54565b610da96080830185610d51565b610db660a0830184610d51565b979650505050505050565b6000606082019050610dd66000830186610d36565b610de36020830185610d36565b610df06040830184610c54565b949350505050565b7f4e487b7100000000000000000000000000000000000000000000000000000000600052601160045260246000fd5b6000610e3282610bde565b91507fffffffffffffffffffffffffffffffffffffffffffffffffffffffffffffffff821415610e6557610e64610df8565b5b600182019050919050565b600082825260208201905092915050565b7f546865206f66666572206d757374206578697374000000000000000000000000600082015250565b6000610eb7601483610e70565b9150610ec282610e81565b602082019050919050565b60006020820190508181036000830152610ee681610eaa565b9050919050565b7f546865206f776e6572206f6620746865206f666665722063616e6e6f7420666960008201527f6c6c206974000000000000000000000000000000000000000000000000000000602082015250565b6000610f49602583610e70565b9150610f5482610eed565b604082019050919050565b60006020820190508181036000830152610f7881610f3c565b9050919050565b7f416e206f666665722063616e6e6f742062652066756c66696c6c65642074776960008201527f6365000000000000000000000000000000000000000000000000000000000000602082015250565b6000610fdb602283610e70565b9150610fe682610f7f565b604082019050919050565b6000602082019050818103600083015261100a81610fce565b9050919050565b7f412063616e63656c6c6564206f666665722063616e6e6f742062652066756c6660008201527f696c6c6564000000000000000000000000000000000000000000000000000000602082015250565b600061106d602583610e70565b915061107882611011565b604082019050919050565b6000602082019050818103600083015261109c81611060565b9050919050565b7f5468652045544820616d6f756e742073686f756c64206d61746368207769746860008201527f20746865204e4654205072696365000000000000000000000000000000000000602082015250565b60006110ff602e83610e70565b915061110a826110a3565b604082019050919050565b6000602082019050818103600083015261112e816110f2565b9050919050565b600061114082610bde565b915061114b83610bde565b9250827fffffffffffffffffffffffffffffffffffffffffffffffffffffffffffffffff038211156111805761117f610df8565b5b828201905092915050565b60006060820190506111a06000830186610c54565b6111ad6020830185610c54565b6111ba6040830184610d36565b949350505050565b7f54686973207573657220686173206e6f2066756e647320746f20626520636c6160008201527f696d656400000000000000000000000000000000000000000000000000000000602082015250565b600061121e602483610e70565b9150611229826111c2565b604082019050919050565b6000602082019050818103600083015261124d81611211565b9050919050565b60006040820190506112696000830185610d36565b6112766020830184610c54565b9392505050565b7f546865206f666665722063616e206f6e6c792062652063616e63656c6564206260008201527f7920746865206f776e6572000000000000000000000000000000000000000000602082015250565b60006112d9602b83610e70565b91506112e48261127d565b604082019050919050565b60006020820190508181036000830152611308816112cc565b9050919050565b7f416e206f666665722063616e6e6f742062652063616e63656c6c65642074776960008201527f6365000000000000000000000000000000000000000000000000000000000000602082015250565b600061136b602283610e70565b91506113768261130f565b604082019050919050565b6000602082019050818103600083015261139a8161135e565b905091905056fea26469706673582212203fa3a69c19d6173958ef19ae1f2250859c5f8c5157cb9891a940e7161537991f64736f6c634300080c0033",
  "immutableReferences": {},
  "source": "// SPDX-License-Identifier: MIT\npragma solidity ^0.8.0;\n\nimport \"./NFTCollection.sol\";\n\ncontract NFTMarketplace {\n    uint256 public offerCount;\n    mapping(uint256 => _Offer) public offers;\n    mapping(address => uint256) public userFunds;\n    NFTCollection nftCollection;\n\n    struct _Offer {\n        uint256 offerId;\n        uint256 id;\n        address user;\n        uint256 price;\n        bool fulfilled;\n        bool cancelled;\n    }\n\n    event Offer(\n        uint256 offerId,\n        uint256 id,\n        address user,\n        uint256 price,\n        bool fulfilled,\n        bool cancelled\n    );\n\n    event OfferFilled(uint256 offerId, uint256 id, address newOwner);\n\n    event OfferCancelled(uint256 offerId, uint256 id, address owner);\n\n    event ClaimFunds(address user, uint256 amount);\n\n    constructor(address _nftCollection) {\n        nftCollection = NFTCollection(_nftCollection);\n    }\n\n    function makeOffer(uint256 _id, uint256 price) public {\n        nftCollection.transferFrom(msg.sender, address(this), _id);\n        offerCount++;\n        offers[offerCount] = _Offer(\n            offerCount,\n            _id,\n            msg.sender,\n            price,\n            false,\n            false\n        );\n        emit Offer(offerCount, _id, msg.sender, price, false, false);\n    }\n\n    function fillOffer(uint256 _offerId) public payable {\n        _Offer storage _offer = offers[_offerId];\n        require(_offer.offerId == _offerId, \"The offer must exist\");\n        require(\n            _offer.user != msg.sender,\n            \"The owner of the offer cannot fill it\"\n        );\n        require(!_offer.fulfilled, \"An offer cannot be fulfilled twice\");\n        require(!_offer.cancelled, \"A cancelled offer cannot be fulfilled\");\n        require(\n            msg.value == _offer.price,\n            \"The ETH amount should match with the NFT Price\"\n        );\n        nftCollection.transferFrom(address(this), msg.sender, _offer.id);\n        _offer.fulfilled = true;\n        userFunds[_offer.user] += msg.value;\n        emit OfferFilled(_offerId, _offer.id, msg.sender);\n    }\n\n    function cancelOffer(uint256 _offerId) public {\n        _Offer storage _offer = offers[_offerId];\n        require(_offer.offerId == _offerId, \"The offer must exist\");\n        require(\n            _offer.user == msg.sender,\n            \"The offer can only be canceled by the owner\"\n        );\n        require(!_offer.fulfilled, \"A cancelled offer cannot be fulfilled\");\n        require(!_offer.cancelled, \"An offer cannot be cancelled twice\");\n        nftCollection.transferFrom(address(this), msg.sender, _offer.id);\n        _offer.cancelled = true;\n        emit OfferCancelled(_offerId, _offer.id, msg.sender);\n    }\n\n    function claimFunds() public {\n        require(\n            userFunds[msg.sender] > 0,\n            \"This user has no funds to be claimed\"\n        );\n        payable(msg.sender).transfer(userFunds[msg.sender]);\n        emit ClaimFunds(msg.sender, userFunds[msg.sender]);\n        userFunds[msg.sender] = 0;\n    }\n\n    fallback() external {\n        revert();\n    }\n}\n",
  "sourcePath": "/Users/ngocban/Desktop/nft-marketplace/src/contracts/NFTMarketplace.sol",
  "compiler": {
    "name": "solc",
    "version": "0.8.12+commit.f00d7308.Emscripten.clang"
  },
  "schemaVersion": "3.4.4",
  "updatedAt": "2022-02-28T13:21:21.130Z",
  "networkType": "ethereum",
  "devdoc": {
    "kind": "dev",
    "methods": {},
    "version": 1
  },
  "userdoc": {
    "kind": "user",
    "methods": {},
    "version": 1
  }
}